:020000040800F2
:10000000E0450020CD010008D1010008D30100081F
:10001000D5010008D7010008D90100080000000040
:10002000000000000000000000000000DB010008EC
:10003000DD01000800000000DF010008E101000808
:10004000E3010008E3010008E3010008E301000800
:10005000E3010008E3010008E3010008E3010008F0
:10006000E3010008E3010008E3010008E3010008E0
:10007000E3010008E3010008E3010008E3010008D0
:10008000E301000879020008E3010008E301000829
:10009000E3010008E3010008E3010008E3010008B0
:1000A000E3010008B5030008E3010008E3010008CC
:1000B000E3010008E5030008E3010008E30100088C
:1000C000E3010008E3010008E3010008E301000880
:1000D000E30100080D04000861040008B5040008ED
:1000E000E3010008E3010008E3010008E301000860
:1000F000E3010008E3010008E3010008E301000850
:10010000E3010008E3010008E3010008E30100083F
:10011000E3010008E3010008E3010008E30100082F
:10012000E3010008E3010008E3010008E30100081F
:1001300000F002F800F03AF80AA090E8000C8244BF
:100140008344AAF10107DA4501D100F02FF8AFF29C
:10015000090EBAE80F0013F0010F18BFFB1A43F0A5
:10016000010318471C0E00003C0E0000103A24BF8B
:1001700078C878C1FAD8520724BF30C830C144BF0C
:1001800004680C607047000000230024002500264E
:10019000103A28BF78C1FBD8520728BF30C148BFEA
:1001A0000B6070471FB51FBD10B510BD00F02DF8D6
:1001B0001146FFF7F7FF00F0E5F900F04BF803B444
:1001C000FFF7F2FF03BC00F04FF8000008480047BB
:1001D000FEE7FEE7FEE7FEE7FEE7FEE7FEE7FEE7F7
:1001E000FEE7FEE703480449044A054B7047000058
:1001F00031010008E0010020E0450020E00500207A
:10020000E0050020704770477047754600F028F8F9
:10021000AE4605006946534620F00700854618B0F3
:1002200020B5FFF7DFFFBDE820404FF000064FF09C
:1002300000074FF000084FF0000B21F00701AC461B
:10024000ACE8C009ACE8C009ACE8C009ACE8C0093A
:100250008D4670470446AFF300802046FFF7AFFF9E
:10026000004870477C01002001491820ABBEFEE722
:1002700026000200704700001049096801F0007173
:10028000B1F1007F19D10D49496841F080710B4AE5
:100290005160002004E00021094A1154411C88B239
:1002A00007498978491D8142F5DC04498031096894
:1002B00021F00301014AC2F880107047000002409B
:1002C0007A00002001464906084A926942F001027C
:1002D000064B9A61064A526822F0E062044B5A606B
:1002E0001A4652680A435A607047000000100240E4
:1002F000000001402DE9F0478046894614461D461E
:100300002046E11704EB9171C1F3870AE11704EB72
:1003100091718910A4EB8101CFB2042000EBC700DA
:10032000C7B2284600F032F8C5F1040008FA00F61A
:100330000F20284100EA0900064306F00F06202C92
:1003400009DA104801680120A04001434FF0E02085
:10035000C0F800110BE00B48001D0068A4F120015B
:1003600001228A4010434FF0E021C1F80401064801
:1003700050F82A0006FA07F10843034941F82A0019
:10038000BDE8F08700E100E000E400E0014607235B
:1003900023EA01021202054B18684FF6FF031840CA
:1003A000034B18431043014B186070470CED00E0FD
:1003B0000000FA050A48008820F00100084908807A
:1003C0000748103000884FF6FE700549103108804C
:1003D0000348008840F00100014908807047000090
:1003E000002C01400748008800F0010010B10120F6
:1003F000054908600348008820F001000149088091
:100400007047000010040040808121420020104904
:10041000098801F01001102903D10D49091D09882F
:10042000C8B20C49C96DC1F132010B4AD186012114
:100430000A4A11700749896D21F00101054A916549
:100440003221D1651146896D41F0010191657047F6
:10045000003801400000024042000020020000205D
:1004600000201049098801F01001102903D10D491D
:10047000091D0988C8B20C49096F49420B4A11701D
:1004800001210B4A11700849C96E21F00101064A89
:10049000D166911511671146C96E41F00101D1660F
:1004A00070470000004400400000024008000020A7
:1004B000090000201049098801F01001102903D11A
:1004C0000D49091D0988C8B20C49496BC1F13201B7
:1004D0000B4A117001210B4A11700849096B21F078
:1004E0000101064A1163322151631146096B41F043
:1004F0000101116370470000004800400000024005
:1005000004000020050000204FF0E021096921F0DF
:1005100004014FF0E0221161C21700EB5272C2F3E6
:10052000C702074B1A701946097801EB4102C2EB6A
:10053000C1114FF6FF7202EAC101024A11807047F1
:100540000A0000200C00002001460D4A12884A4390
:100550004FF0E0235A6100229A6101221A6100BF24
:100560004FF0E022106900F001021AB100F480326D
:10057000002AF5D000224FF0E0231A619A617047FB
:100580000C0000201FB50024002000900190029074
:100590000390092000F080F84820FFF7B5FF4FF4E2
:1005A0001651482000F0B6F84FF46141242000F0C5
:1005B00079F90120FFF786FE17E00C480078012842
:1005C00008D10020094908700948447901462046AD
:1005D00000F052F907480078012806D100200549AB
:1005E000087005490D2000F013F8E6E7020000202E
:1005F00010000020090000207A000020024A0A4072
:100600000243024B1A60704780FFFF1F08ED00E0B5
:10061000064A526C22F00102044B5A641A461165D4
:100620009064526C42F001025A647047000002402C
:1006300010B5002015490861C860142048610020E9
:100640008861C8610846006840F0010008600846FB
:1006500040680F4908400D494860084600680D4948
:1006600008400A4908600846006820F480200860B5
:100670000846406820F4FE004860002088600021A1
:100680004FF00060FFF7BAFF10BD000000100240FD
:100690000000FFF8FFFFF6FE10B50446FFF7C8FFA5
:1006A0001A48006840F480301849086000BF1748B5
:1006B0000068400C0028FAD04FF48060134948606D
:1006C000A01EC4B20846406840EA8440486008461C
:1006D000406840F4803048600D48006840F03200C7
:1006E0000B4908600948006840F0807007490860BD
:1006F00000BF06480068400E0028FAD00348406852
:1007000040F002000149486010BD000000100240A6
:10071000002002402DE9F05F05460E46300100F052
:10072000CFFA81464D4905FB01F000F0C9FA824637
:10073000494600F0E3F90746384600F0A1FA84B2D2
:10074000204600F0BDFA8346394600F099FB824608
:100750004FF0834100F0C8FA814600F091FA8046DC
:1007600008EB041084B23E48406940F001003C4967
:1007700048610846806940F0040088613948006893
:1007800020F47F60374908600846006840F40B6039
:1007900008603348C06840F480403149C86008466A
:1007A000C06820F48040C8600846806940F48040FA
:1007B00088612D4804802C480838008840F2FF11D9
:1007C00008432949083908800520FFF7BDFE26485F
:1007D000001D008842F21C0108432349091D0880BE
:1007E00021480C30008840F0C0001F490C310880BF
:1007F0001E48406C00201D49486488641A48001F48
:10080000C864002008650846406C40F092004864C7
:100810000846806D002088651348001F086614484C
:1008200048663220C8650846806D43F2830108435C
:100830000E4988650223252200211846FFF75AFD3C
:1008400002230F2203210120FFF754FD0020094954
:100850004886C8868886BDE8F09F000040420F00A9
:100860000010024004080140083801400000024026
:100870001000002042000020094A126822F0010204
:10088000074B803BC3F880201A46C2F88C10C2F890
:100890008400D2F8802042F00102C3F88020704723
:1008A000800002402DE9F05F05460E46300100F061
:1008B00007FA8146584905FB01F000F001FA82462B
:1008C000494600F01BF90746384600F0D9F984B2D2
:1008D000204600F0F5F98346394600F0D1FA824609
:1008E0004FF0834100F000FA814600F0C9F91FFA89
:1008F00080F808EB041084B24848806940F0040096
:1009000046498861464800684FF6F071884344497B
:1009100008600846006848F62031084340490860EE
:1009200000BF00203F4908606420FFF70DFE012052
:100930003D49C1F8840100BF3848006940F40030E7
:10094000364908610846006920F40030086108460D
:10095000C06940F40030C86134480480001D00883C
:1009600042F21C0108433149091D08802F480C3010
:10097000008840F0C0002D490C31088027484069AC
:1009800040F00100254948610520FFF7DDFD2848BA
:100990000068002026498039C1F880002449091DDB
:1009A00008602248001F091D086000202049803986
:1009B000C1F88C000846D0F8800040F09200C1F8E1
:1009C00080000846C06E0020C8661848001F4867AF
:1009D00018488867881508670846C06E43F2830187
:1009E000084313498039C86610480838008840F227
:1009F000FF1108430D4908390880022326221946B1
:100A00000120FFF777FC0223112219460120FFF78E
:100A100071FCBDE8F09F000040420F000010024052
:100A200000080140840121420000214208440040A6
:100A3000800002407A00002090EA010F48BF81F058
:100A4000004100F12E82421A3CBF801A89184FEAF9
:100A5000D0524FF07F4C1CEA410FA2EBD15318BF8C
:100A60009CEA026F00F03B804FF0004C4CEA002003
:100A70004CEA012121FA03FC10EB0C0C1ED202F10E
:100A8000FF325FEA1C2040EBC25038BF70471CF0B9
:100A90007F0F4FEA400C18BFBCF17F4F38BF704743
:100AA000C3F12003994008BF20F00100BCF17F4F43
:100AB00038BF7047A0F1C04000F0DDB94FEA3C00FC
:100AC000000A40EBC25028BF1CF0FF0F4FEA400C59
:100AD000E6D018BFBCF17F4F38BF7047EAE79CEA09
:100AE000026F05D010EA5C0F08BF00F000407047AD
:100AF00010B500F07AF900BF64FBBE3E4FF47F0CE6
:100B00001CEAD0121EBF1CEAD11392EA0C0F93EA22
:100B10000C0F00F0858090EA010F48BF42F480720C
:100B200040F4000C41F400002CF07F4120F07F40A5
:100B300000B58142A2EB03020FF2081CACEB504E51
:100B4000C0F100009EF800E04FEA4E0E00FB0EFCE4
:100B500038BF49004FEA2C1C02F5FA020CFB0EF3D9
:100B60004FEACE1E4FEA112C4FEAC1210EEB635E15
:100B700042EB22420EFB0CFC4FEA1C5300FB03111C
:100B80004FEA112C4FEA01310EFB0CFC4FEADC4C12
:100B900000FB0C11C14228BF09184CEB03335DF870
:100BA00004EB10EB410143EBC250B2F57C0F38BFB0
:100BB000704729D512F0F00F1CBF00F1C04000F0C3
:100BC00000407047008182838485868788898B8C6A
:100BD0008D8E8F919293959697999A9C9D9FA0A2A6
:100BE000A3A5A7A8AAACAEB0B2B3B5B7B9BCBEC0F6
:100BF000C2C5C7C9CCCED1D4D7D9DCDFE2E6E9EC97
:100C0000F0F3F7FAFE0000004FEA400C0CF1807C94
:100C1000BCF17E4F28BF7047B0F1C04000F02BB947
:100C200090EA010F0CEAD11348BF42F4807262458A
:100C300038BF634507D213F47F0F16D080EA010056
:100C400000F00040704710B500F0CFF8097EFC3E80
:100C500000F005B880EA010000F00040704780EA2B
:100C6000010000F0004000F006B912F47F0F04BF4D
:100C70000248704780EA010000F0FDB80000C07F24
:100C8000C10DD1F19E0206DB4FEA002343F0004381
:100C900023FA02F07047004207D54FEA4001B1F154
:100CA000FE4F02D24FF00000704710B500F09DF8E3
:100CB00049922480002070476FEA200070470000AE
:100CC000B0FA80F310FA03F2C3F19D030AD0D905FC
:100CD00001EB1220530638BF704700F1010008BF36
:100CE00020F00100704700004FF47F0C1CEAD01286
:100CF0001EBF1CEAD11392EA0C0F93EA0C0F00F00E
:100D0000478090EA010F48BF42F480724FF0004CD8
:100D10004CEA00204CEA012102EB0302A0FB011384
:100D2000A2F50002002918BF43F001035B0028BFB1
:100D30004FEA330342EB22425FEA132C4CEBC250E2
:100D40002EBFBCEB436FB2F57C0F70474FEA036CCC
:100D5000BCF1004F08BF20F00100B2F57C0F38BF96
:100D600070470BD582F0FF0212F5803FC8BF704775
:100D700000F1C040D8BF00F00040704700F5000C03
:100D80005FEA4C0C48BF7047B0F1C04000F073B848
:100D900090EA010F0CEAD11348BF42F48072624519
:100DA00038BF634504D280EA010000F0004070477C
:100DB00010B500F01AF800BF8900013E00F007B836
:100DC00000F009B85FEA410C5FEA1C6C08D080EAC9
:100DD000010000F050B85FEA400C5FEA1C6CF6D1ED
:100DE0004FF00040A0F5800070470EF1020E2EF08B
:100DF000030E5EF8044B244204D44FEA4102B2F1E0
:100E00007F4F11D84FEA4003B3F17F4F0CD80ED17A
:100E10004FEAD07CB2F17F4F0CEB4C0C0CF1020C82
:100E200008BF4CEBD17C04E04FF0080C01E04FEA26
:100E3000D17C0CEB4C0324FA03F404F00704B4F166
:100E4000040C06D20EEB840CBDE810404CF0010CF3
:100E50006047DFE80CF0070802024FF00040A0F501
:100E6000800010BD0846420018BFD2F1807288BFD2
:100E700000F0004010BDFF2141EAD050C00570478E
:100E800080F0004090EA010F7FF5DDAD81F0004178
:100E900000F007B890EA010F48BF81F000413FF52C
:100EA000D2AD421A04D882F00042A0EB02001144F5
:100EB0004FEAD0524FF07F4C1CEA410FA2EBD153C6
:100EC00018BF9CEA026F4AD04FF0004C4CEA002059
:100ED0004CEA012121FA03FCB0EB0C0C0FD412F008
:100EE000FE0F36D05FEA4C001DD5001240EBC25019
:100EF00038BF70471CF03F0F18BF70470BE0A2F1DE
:100F000001025FEA1C2040EBC25038BF70471CF062
:100F10007F0F18BF7047C3F12003994014BF401ED4
:100F200020F00100704780084FEA122308BF704785
:100F3000B0FA80FCA2EB0C02CCF1280C60FA0CF0A9
:100F400093EA122F04BF00EBC25070474FEAC37000
:100F50007047130A5FEADC1008BF7047F6E79CEAA7
:100F6000026F04D010EA5C0F08BF0020704710B574
:100F7000FFF73BFF40DFF63E81F000407047000086
:100F8000A00F000800000020100000006C01000805
:100F9000B00F000810000020D045000088010008B4
:100FA0000000000000000000000000000000000041
:0400000508000131BD
:00000001FF
