:020000040800F2
:10000000B0070020890100088D0100088F01000859
:10001000910100089301000895010008000000000C
:100020000000000000000000000000009701000830
:1000300099010008000000009B0100089D010008D4
:100040009F0100089F0100089F0100089F01000810
:100050009F0100089F0100089F0100089F01000800
:100060009F0100089F0100089F0100089F010008F0
:100070009F0100089F0100089F0100089F010008E0
:100080009F010008350200089F0100089F01000839
:100090009F0100089F0100089F0100089F010008C0
:1000A0009F010008910700089F0100089F010008B8
:1000B0009F010008C10700089F0100089F01000878
:1000C0009F0100089F0100089F0100089F01000890
:1000D0009F0100089F010008E90700083D0800088B
:1000E0009F0100089F0100089F01000800F002F82E
:1000F00000F03AF80AA090E8000C82448344AAF188
:100100000107DA4501D100F02FF8AFF2090EBAE885
:100110000F0013F0010F18BFFB1A43F0010318473B
:100120006419000084190000103A24BF78C878C10F
:10013000FAD8520724BF30C830C144BF04680C60ED
:10014000704700000023002400250026103A28BF35
:1001500078C1FBD8520728BF30C148BF0B60704739
:100160001FB51FBD10B510BD00F02DF81146FFF7EB
:10017000F7FF00F0D5FC00F04BF803B4FFF7F2FFF7
:1001800003BC00F04FF8000008480047FEE7FEE718
:10019000FEE7FEE7FEE7FEE7FEE7FEE7FEE7FEE737
:1001A00003480449044A054B70470000ED0000086D
:1001B000B0010020B0070020B0030020B0030020F1
:1001C000704770477047754600F028F8AE46050046
:1001D0006946534620F00700854618B020B5FFF762
:1001E000DFFFBDE820404FF000064FF000074FF062
:1001F00000084FF0000B21F00701AC46ACE8C00945
:10020000ACE8C009ACE8C009ACE8C0098D4670474D
:100210000446AFF300802046FFF7AFFF0048704769
:100220005001002001491820ABBEFEE72600020065
:10023000704700001049096801F00071B1F1007FBA
:1002400019D10D49496841F080710B4A5160002075
:1002500004E00021094A1154411C88B207498978F9
:10026000491D8142F5DC04498031096821F0030110
:10027000014AC2F880107047000002401B000020B5
:1002800010B500200F4908600F48006820F4704046
:100290000D4908600846006840F44050086000209E
:1002A0000A49C1F88C01022000F078FB01200549C1
:1002B0000860022000F072FB00200449C1F89001A0
:1002C00010BD000090812142000C014000802142BD
:1002D0000B48806940F008000949886109480068B6
:1002E00020F47F20074908600846006840F44C303D
:1002F00008600120044908600449C1F88C01704776
:1003000000100240000C01409081214200802142F7
:1003100010B500200F4908600F48006820F47040B5
:100320000D4908600846006840F44050086001200C
:100330000A49C1F88C01022000F030FB0120054978
:100340000860022000F02AFB00200449C1F8900157
:1003500010BD000090812142000C0140008021422C
:1003600070B5054600241748006820F47040154910
:1003700008600846006840F400400860002616E067
:10038000002011490860022000F008FB01200F49FD
:10039000C1F890016006040E0B488438006808B16B
:1003A000601CC4B2012000F0F9FA701CC6B2082E1D
:1003B000E6DB15B9FFF7ACFF01E0FFF761FF204670
:1003C00070BD0000000C014090812142008021425C
:1003D00070B504461548006820F470401349086061
:1003E0000846006840F4405008600020104908604A
:1003F000002517E0E0090E49091F08606006040E99
:10040000022000F0CBFA01200A49C1F89001022035
:1004100000F0C4FA002006490860022000F0BEFA8D
:10042000681CC5B2082DE5DB70BD0000000C014062
:10043000908121420080214210B50F48006820F4CD
:1004400070400D4908600846006840F4405008605C
:1004500001200A4908600A49C1F89001042000F00F
:100460009DFA002005490860042000F097FA00205A
:100470000349C1F8900110BD000C01408C8121425C
:100480000080214210B51048006820F470400E49E9
:1004900008600846006840F44050086000200B499E
:1004A00008600B49C1F88C01042000F077FA0120A4
:1004B0000649086000F072FA01200549C1F88C0174
:1004C000042000F06BFA10BD000C01409081214225
:1004D0000080214210B500241348006820F47040C9
:1004E000114908600846006840F400400860012097
:1004F0000E49086000F052FA01200D49C1F8900140
:1005000000F04CFA05E0601CC4B2FA2C01DD0120B9
:1005100010BD0648803800680028F4D10349091D41
:10052000086000BFF4E70000000C01408C8121420C
:100530000080214201464906084A926942F00102C0
:10054000064B9A61064A526822F0E062044B5A60F8
:100550001A4652680A435A60704700000010024071
:10056000000001402DE9F0478046894614461D46AB
:100570002046E11704EB9171C1F3870AE11704EB00
:1005800091718910A4EB8101CFB2042000EBC70068
:10059000C7B2284600F032F8C5F1040008FA00F6A8
:1005A0000F20284100EA0900064306F00F06202C20
:1005B00009DA104801680120A04001434FF0E02013
:1005C000C0F800110BE00B48001D0068A4F12001E9
:1005D00001228A4010434FF0E021C1F8040106488F
:1005E00050F82A0006FA07F10843034941F82A00A7
:1005F000BDE8F08700E100E000E400E001460723E9
:1006000023EA01021202054B18684FF6FF03184057
:10061000034B18431043014B186070470CED00E08A
:100620000000FA0510B54FF41651242000F012FB1B
:1006300010BD0000034AD2780270024A92780A7014
:10064000704700001B0100202DE9FE4F044689463B
:1006500000200290824602AB0222F321802000F0AB
:100660005FF8E8B99DF809009DF8081040EA012AF2
:100670002AF0030A504601F0A5F8834600F032FF45
:100680000746204A204B00F045FD05461F4A204BF7
:1006900000F03EFECDE9000100F062FC206004E0C5
:1006A000002020600120BDE8FE8F02AB0222F52170
:1006B000802000F035F8F0B99DF809009DF8081089
:1006C00040EA012A2AF0030A504601F07BF88346EB
:1006D00000F008FF0F4A104BCDE9000100F01AFDB1
:1006E000054600220D4B00F013FE074600F038FCD3
:1006F000C9F8000004E00020C9F800000120D2E79A
:100700000020D0E7619FC6DE07F7653FCDCCCCCC9B
:10071000CC6C47407644CF7701405F3F00001840E3
:100720002DE9F04106460F4614461D46FFF784FEAC
:100730003046FFF74DFEFFF7CDFE20B1FFF7A2FEDA
:100740000120BDE8F0813846FFF742FEFFF7C2FE08
:10075000642000F005F9FFF76FFE711CC8B2FFF7C7
:1007600037FEFFF7B7FE0DE0012C04D10020FFF7A4
:10077000F7FD287003E00120FFF7F2FD2870601EEE
:10078000C4B26D1C002CEFD1FFF77CFE0020D8E72F
:100790000A48008820F00100084908800748103006
:1007A00000884FF6FE700549103108800348008824
:1007B00040F001000149088070470000002C014012
:1007C0000748008800F0010010B1012005490860C9
:1007D0000348008820F001000149088070470000AC
:1007E000100400408081214200201049098801F056
:1007F0001001102903D10D49091D0988C8B20C49FF
:10080000096F49420B4A117001210B4A11700849C6
:10081000C96E21F00101064AD16691151167114692
:10082000C96E41F00101D1667047000000440040EC
:100830000000024002000020030000201049098847
:1008400001F01001102903D10D49091D0988C8B212
:100850000C49496BC1F132010B4A117001210B4A5D
:1008600011700849096B21F00101064A1163322118
:1008700051631146096B41F001011163704700009B
:100880000048004000000240050000200600002053
:100890002DE9F84300200090804600241F4800788E
:1008A000FE2838D11D484078FE2834D11B4890F8E6
:1008B00002802CE01948005DFE2828D1601C1749F1
:1008C000085CFE2823D1A01D085C40281ED1E01D35
:1008D0000F5C601D085C0938C5B2002608E006F10F
:1008E000080020440D49085C8DF80000701CC6B259
:1008F000AE42F4DB6946384600F06EF805F10900B7
:10090000C4B2A8EB040000F0FF0800E002E0B8F178
:10091000000FCFD100BFBDE8F88300001B0000200E
:100920004FF0E021096921F004014FF0E02211614C
:10093000C21700EB5272C2F3C702074B1A70194676
:10094000097801EB4102C2EBC1114FF6FF7202EAD6
:10095000C101024A11807047080000200A000020EF
:1009600001460D4A12884A434FF0E0235A610022A3
:100970009A6101221A6100BF4FF0E022106900F075
:1009800001021AB100F48032002AF5D000224FF0A3
:10099000E0231A619A6170470A00002001460D4A5F
:1009A00012784A434FF0E0235A6100229A610122F3
:1009B0001A6100BF4FF0E022106900F001021AB185
:1009C00000F48032002AF5D000224FF0E0231A61B3
:1009D0009A617047080000202DE9FE4305460C4649
:1009E0000020029000261E2D04D01F2D11D0202D96
:1009F0005BD134E0207801280AD10DF1090102A869
:100A0000FFF718FE02262A4602A9304600F054F8E5
:100A10004CE02078012821D1694601A8FFF714FE97
:100A2000019800F0AFFEC0B28DF808009DF80800F4
:100A300000F0C8FE8146019900F0A4FF80461D49E0
:100A400000F0D4FE074600F09DFEC0B28DF809000C
:100A500002262A4602A9304600F02EF826E0207829
:100A6000012821D1694601A8FFF7EEFD009800F0AA
:100A700089FEC0B28DF808009DF8080000F0A2FEC3
:100A80008146009900F07EFF80460A4900F0AEFEE4
:100A9000074600F077FEC0B28DF8090002262A460C
:100AA00002A9304600F008F800E000BF00BFBDE832
:100AB000FE8300000000C8422DE9F04104460E46C6
:100AC0001746EF2012490870487000208870FF20F8
:100AD000C870087104F10900487140208871084607
:100AE000C771002506E0715D05F10800084A115440
:100AF000681CC5B2A542F6DB0F21054A04F10800C7
:100B000011541146401C00F04BF9BDE8F081000083
:100B10000C00002010B5FFF7DBFBFFF783FD10BDD5
:100B2000092000F059F84820FFF7FAFE0120FFF7EE
:100B300001FD4FF46141242000F048F9FFF7EAFF7E
:100B400008E005480078012804D100200249087017
:100B5000FFF79EFEF5E7000003000020024A0A406E
:100B60000243024B1A60704780FFFF1F08ED00E050
:100B700010B5002015490861C860142048610020A4
:100B80008861C8610846006840F0010008600846B6
:100B900040680F4908400D494860084600680D4903
:100BA00008400A4908600846006820F48020086070
:100BB0000846406820F4FE0048600020886000215C
:100BC0004FF00060FFF7CAFF10BD000000100240A8
:100BD0000000FFF8FFFFF6FE10B50446FFF7C8FF60
:100BE0001A48006840F480301849086000BF174870
:100BF0000068400C0028FAD04FF480601349486028
:100C0000A01EC4B20846406840EA844048600846D6
:100C1000406840F4803048600D48006840F0320081
:100C20000B4908600948006840F080700749086077
:100C300000BF06480068400E0028FAD0034840680C
:100C400040F002000149486010BD00000010024061
:100C5000002002402DE9F05F05460E46300100F00D
:100C6000B1FD8146484905FB01F000F0ABFD82462D
:100C7000494600F0C5FC0746384600F083FD84B2C3
:100C8000204600F09FFD8346394600F07BFE8246F9
:100C90004FF0834100F0AAFD814600F073FD8046CD
:100CA00008EB041084B23948806940F008003749E5
:100CB00088613748006820F47F403549086008465D
:100CC000006840F40B4008603048006940F4802020
:100CD0002E4908610846006920F480200861084612
:100CE000C06940F48020C8612A480480001D008843
:100CF00042F21C0108432749091D088025480C3091
:100D0000008840F0C00023490C3108801F4840692A
:100D100040F001001D4948610520FFF721FE1E48F3
:100D2000C06900201C49C86108621A48001F486257
:100D3000002088620846C06940F09200C8610846F9
:100D4000006B002008631348001F88631348C863C2
:100D5000322048630846006B42F2830108430E4983
:100D600008630223272201210846FFF7FBFB022329
:100D70000D2201210846FFF7F5FB0020054908393F
:100D80000880BDE8F09F000040420F0000100240C4
:100D9000040C014008480040000002401B010020F4
:100DA000094A126822F00102074B803BC3F88020F9
:100DB0001A46C2F88C10C2F88400D2F8802042F0A3
:100DC0000102C3F880207047800002402DE9F05FE7
:100DD00005460E46300100F0F5FC8146584905FBFA
:100DE00001F000F0EFFC8246494600F009FC07469E
:100DF000384600F0C7FC84B2204600F0E3FC83468E
:100E0000394600F0BFFD82464FF0834100F0EEFC12
:100E1000814600F0B7FC1FFA80F808EB041084B29A
:100E20004848806940F004004649886146480068A7
:100E30004FF6F0718843444908600846006848F658
:100E4000203108434049086000BF00203F49086046
:100E50006420FFF785FD01203D49C1F8840100BFF2
:100E60003848006940F40030364908610846006996
:100E700020F4003008610846C06940F40030C861C1
:100E800034480480001D008842F21C0108433149A7
:100E9000091D08802F480C30008840F0C0002D4903
:100EA0000C3108802748406940F00100254948611D
:100EB0000520FFF755FD28480068002026498039A5
:100EC000C1F880002449091D08602248001F091D3F
:100ED0000860002020498039C1F88C000846D0F80D
:100EE000800040F09200C1F880000846C06E0020EB
:100EF000C8661848001F486718488867881508673B
:100F00000846C06E43F28301084313498039C8661E
:100F100010480838008840F2FF1108430D4908398D
:100F200008800223262219460120FFF71BFB02231B
:100F3000112219460120FFF715FBBDE8F09F0000C4
:100F400040420F000010024000080140840121428D
:100F50000000214208440040800002401B000020A5
:100F600021F00042A2F16052B2F5801F01F000436F
:100F700028BFD2F17F6C0BD95FEA001C43EAC202A2
:100F800042EB507018BF704728BF20F00100704737
:100F9000B2F5801FBCBF184670474FEA410C1CF5E4
:100FA000001F02D2084600F0E8BC70B500F05CF902
:100FB00000000089FFF7F6BF4FF00040A0F5800069
:100FC0007047000010B591EA030F48BF83F000435B
:100FD00000F1A681841A71EB030C05D2121943EBC0
:100FE0000C03001B61EB0C01DFF824E14FEA115404
:100FF000A4EB135C1EEA430F18BF9EEA445F73D054
:1010000023EA0E03DCF1200E21EA045143F480139D
:1010100032D322FA0CFE10EB0E0023FA0CFE41EB49
:101020000E01CCF1200E03FA0EFE10EB0E0051F172
:101030000001B1F5801FCCF1200E32D201EB04513A
:1010400012FA0EF2BDE8104058BF7047401C38BF7E
:101050005FEA420218BF7047002814BF20F0010069
:1010600041F100014FEA410313F5001F38BF7047FB
:10107000A1F1C04100F046B9012A43EB0302ACF1F3
:10108000200CDCF11F0E32BF4FF0000E23FA0CF3E0
:1010900010EB030041EB0451B4EB115FD0D0A1EB96
:1010A000045101F5801149085FEA300001EB045159
:1010B0000ED350F1000038BF12FA0EFE08D1BDE881
:1010C0001040C9E7401C38BF5FEA4202CAD1C3E7FB
:1010D000BDE810404FEA410313F5001F38BF7047C9
:1010E000A1F1C04100F00EB99EEA445F08D011EAB8
:1010F0005E0FBDE8104004BF01F0004100207047C2
:10110000BDE8104070B500F0AFF800BF64FBBE3E14
:101110000000E0FFDFF848C170B51CEA111E1EBFD9
:101120001CEA13159EEA0C0F95EA0C0F00F06F8075
:1011300081EA030423EA4C134EEAD47E21EA4C11DF
:1011400041F4801143F48013AE44A1FB024CA0FB98
:101150000365AEF17F7E361955EB0C05A1FB034C00
:101160004CF10003A0FB021C16EB0C06654153F189
:101170000003094218BF46F0010613F4007F0BD1AB
:101180004FEA03314FEA0530340341EA155140EA92
:1011900016506FF003020AE04FEAC3214FEAC52060
:1011A000F40241EA555140EA56506FF0020202EB58
:1011B0002E4201EB025585EACE710AD05FEA440C5B
:1011C00018BF24F0004450F1000041F1000120EA72
:1011D000D47040F2FE7C624500D270BDA84214BFBC
:1011E0004FF080444FF04044002E08BF0024BEF171
:1011F000806FA8BFA1F1C041BDE8704080F282803D
:101200004FF0000001F1C04101F0004170479EEA3B
:101210000C0F0CEA131518BF95EA0C0F06D04FF00F
:10122000000081EA030E0EF0004170BD00F01CF8D2
:101230008900013E00F007B800F009B84FEA430CFE
:101240005FEA5C5C08D081EA030100F05BB84FEA1A
:10125000410C5FEA5C5CF6D14FF000000149704739
:101260000000FF070000F87F0EF1020E2EF0030EC3
:101270005EF8046B364205D4012A43EB030515F5ED
:10128000001F12D8012841EB010C1CF5001F0CD8DF
:101290000ED14FEAD17C15F5001F0CEB4C0C0CF174
:1012A000020C08BF4CEBD37C04E04FF0080C01E0CB
:1012B0004FEAD37C0CEB4C0526FA05F606F0070640
:1012C000B6F1040C06D20EEB860CBDE870404CF073
:1012D000010C6047DFE80CF0090B02024FF00041FF
:1012E0004FF00000A1F5002170BD194610460128FD
:1012F00051EB010418BFD4F5001484BF002001F0A5
:10130000004170BD0808A0F500114FEA3101704797
:1013100010B591EA030F48BF83F000433FF55AAE82
:10132000841A71EB030C07D212198CF0004C43EBBA
:101330000C03001B61EB0C01DFF8A4E14FEA115430
:10134000A4EB135C1EEA430F18BF9EEA445F00F053
:10135000B08023EA6E03524221EA0451C3EB6E03CC
:1013600038BF5B1EDCF1200E25D322FA0CFE10EBF9
:101370000E0043FA0CFE41EB0E01CCF1200E03FAF5
:101380000EFE10EB0E0051F10001CCF1200E29D41D
:1013900012FA0EF201EB0451BDE8104058BF70473D
:1013A000401C1CBFB2F1004F704700280CBF491C05
:1013B00020F00100704712EB020E43EB030218BF4E
:1013C0004FF0010E4EEA4202ACF1200CDCF11E0E91
:1013D00054D943FA0CFE10EB0E0051F1FF31CCF161
:1013E0001E0ED5D50EF1010E12FA0EFE404141EB54
:1013F000010101EB445C5FEA5C5C10D910EBDE702C
:1014000001EB045138BFBEF1004FBDE8104018BFDA
:10141000704700280CBF491C20F00100704730D2F3
:101420004FEAD42C11F5001124F400641BD0B1FA5A
:1014300081F20B3AA41AA41ED2F12003914030FA93
:1014400003F31943904001EBCC71002C01EB0451E4
:10145000BDE81040A8BF704701F1C0414FF0000047
:1014600001F000417047B0FA80F310FA03F100D1A7
:1014700010BDE41A173C4805C90AE4E701EB045122
:1014800010BD491001EB0451BDE810404FEA300097
:1014900002E04FF0000170474A0008BF0042F8D058
:1014A000B2F5001F28BF704701F000414FF0000067
:1014B00070479EEA445F07D011EA5E0FBDE8104016
:1014C00004BF002100207047BDE8104070B5FFF751
:1014D000CBFE00BF40DFF63E83F000411046704770
:1014E0000000E0FF43004FEAD30C4FEA3C0C4340BE
:1014F0001FBF40070CF1605113F0FE4F70471CF006
:10150000006F03D100200CF0004170470CF0004345
:1015100043EA507010B540EACC0000F0E8F900BF93
:10152000000000924FEA0001FFF7ECBE4FF00041CF
:101530004FF00000A1F500217047000090EA010F74
:1015400048BF81F0004100F12E82421A3CBF801A50
:1015500089184FEAD0524FF07F4C1CEA410FA2EBA2
:10156000D15318BF9CEA026F00F03B804FF0004C53
:101570004CEA00204CEA012121FA03FC10EB0C0C90
:101580001ED202F1FF325FEA1C2040EBC25038BF8E
:1015900070471CF07F0F4FEA400C18BFBCF17F4F23
:1015A00038BF7047C3F12003994008BF20F0010005
:1015B000BCF17F4F38BF7047A0F1C04000F0DDB9EB
:1015C0004FEA3C00000A40EBC25028BF1CF0FF0F5E
:1015D0004FEA400CE6D018BFBCF17F4F38BF7047D0
:1015E000EAE79CEA026F05D010EA5C0F08BF00F042
:1015F0000040704710B500F07AF900BF64FBBE3EB2
:101600004FF47F0C1CEAD0121EBF1CEAD11392EAE1
:101610000C0F93EA0C0F00F0858090EA010F48BF91
:1016200042F4807240F4000C41F400002CF07F4141
:1016300020F07F4000B58142A2EB03020FF2081CAC
:10164000ACEB504EC0F100009EF800E04FEA4E0EA9
:1016500000FB0EFC38BF49004FEA2C1C02F5FA02D1
:101660000CFB0EF34FEACE1E4FEA112C4FEAC121BC
:101670000EEB635E42EB22420EFB0CFC4FEA1C5366
:1016800000FB03114FEA112C4FEA01310EFB0CFC59
:101690004FEADC4C00FB0C11C14228BF09184CEB8F
:1016A00003335DF804EB10EB410143EBC250B2F59C
:1016B0007C0F38BF704729D512F0F00F1CBF00F126
:1016C000C04000F000407047008182838485868797
:1016D00088898B8C8D8E8F919293959697999A9CF1
:1016E0009D9FA0A2A3A5A7A8AAACAEB0B2B3B5B760
:1016F000B9BCBEC0C2C5C7C9CCCED1D4D7D9DCDF36
:10170000E2E6E9ECF0F3F7FAFE0000004FEA400CE5
:101710000CF1807CBCF17E4F28BF7047B0F1C04017
:1017200000F02BB990EA010F0CEAD11348BF42F444
:101730008072624538BF634507D213F47F0F16D01D
:1017400080EA010000F00040704710B500F0CFF8CB
:10175000097EFC3E00F005B880EA010000F0004080
:10176000704780EA010000F0004000F006B912F472
:101770007F0F04BF0248704780EA010000F0FDB807
:101780000000C07FC10DD1F19E0206DB4FEA0023AD
:1017900043F0004323FA02F07047004207D54FEAB6
:1017A0004001B1F1FE4F02D24FF00000704710B57A
:1017B00000F09DF849922480002070476FEA2000D5
:1017C00070470000B0FA80F310FA03F2C3F19D03F2
:1017D0000AD0D90501EB1220530638BF704700F13B
:1017E000010008BF20F00100704700004FF47F0C9B
:1017F0001CEAD0121EBF1CEAD11392EA0C0F93EA26
:101800000C0F00F0478090EA010F48BF42F480724D
:101810004FF0004C4CEA00204CEA012102EB03029D
:10182000A0FB0113A2F50002002918BF43F0010339
:101830005B0028BF4FEA330342EB22425FEA132CDE
:101840004CEBC2502EBFBCEB436FB2F57C0F704720
:101850004FEA036CBCF1004F08BF20F00100B2F565
:101860007C0F38BF70470BD582F0FF0212F5803F26
:10187000C8BF704700F1C040D8BF00F000407047BB
:1018800000F5000C5FEA4C0C48BF7047B0F1C04057
:1018900000F073B890EA010F0CEAD11348BF42F48C
:1018A0008072624538BF634504D280EA010000F0CF
:1018B0000040704710B500F01AF800BF8900013EE3
:1018C00000F007B800F009B85FEA410C5FEA1C6C51
:1018D00008D080EA010000F050B85FEA400C5FEAEF
:1018E0001C6CF6D14FF00040A0F5800070470EF15F
:1018F000020E2EF0030E5EF8044B244204D44FEA8D
:101900004102B2F17F4F11D84FEA4003B3F17F4F4C
:101910000CD80ED14FEAD07CB2F17F4F0CEB4C0CBF
:101920000CF1020C08BF4CEBD17C04E04FF0080C2A
:1019300001E04FEAD17C0CEB4C0324FA03F404F0F1
:101940000704B4F1040C06D20EEB840CBDE8104081
:101950004CF0010C6047DFE80CF0070802024FF082
:101960000040A0F5800010BD0846420018BFD2F12B
:10197000807288BF00F0004010BDFF2141EAD050C6
:10198000C005704780F0004090EA010F7FF5DDADA3
:1019900081F0004100F007B890EA010F48BF81F0E4
:1019A00000413FF5D2AD421A04D882F00042A0EBCC
:1019B000020011444FEAD0524FF07F4C1CEA410F15
:1019C000A2EBD15318BF9CEA026F4AD04FF0004CF3
:1019D0004CEA00204CEA012121FA03FCB0EB0C0C8C
:1019E0000FD412F0FE0F36D05FEA4C001DD5001266
:1019F00040EBC25038BF70471CF03F0F18BF704714
:101A00000BE0A2F101025FEA1C2040EBC25038BF9C
:101A100070471CF07F0F18BF7047C3F12003994037
:101A200014BF401E20F00100704780084FEA1223C7
:101A300008BF7047B0FA80FCA2EB0C02CCF1280C76
:101A400060FA0CF093EA122F04BF00EBC25070470B
:101A50004FEAC3707047130A5FEADC1008BF704793
:101A6000F6E79CEA026F04D010EA5C0F08BF002082
:101A7000704710B5FFF73BFF40DFF63E81F00040B6
:101A800070470000A41A0008000000200C000000AD
:101A900028010008B01A00080C000020A40700006C
:101AA00044010008000000000000000000000000E9
:04000005080000ED02
:00000001FF
